{"abi":[{"type":"function","name":"UPGRADE_INTERFACE_VERSION","inputs":[],"outputs":[{"name":"","type":"string","internalType":"string"}],"stateMutability":"view"},{"type":"function","name":"addWorkerToPayroll","inputs":[{"name":"salary","type":"uint256","internalType":"uint256"},{"name":"description","type":"string","internalType":"string"},{"name":"employeeAddress","type":"address","internalType":"address"},{"name":"eventId","type":"uint256","internalType":"uint256"}],"outputs":[],"stateMutability":"nonpayable"},{"type":"function","name":"addWorkersToPayroll","inputs":[{"name":"workersInfo","type":"tuple[]","internalType":"struct LibStorage.WorkerInfo[]","components":[{"name":"salary","type":"uint256","internalType":"uint256"},{"name":"paid","type":"bool","internalType":"bool"},{"name":"description","type":"string","internalType":"string"},{"name":"employee","type":"address","internalType":"address"},{"name":"position","type":"uint256","internalType":"uint256"}]},{"name":"eventId","type":"uint256","internalType":"uint256"}],"outputs":[],"stateMutability":"nonpayable"},{"type":"function","name":"buyTicket","inputs":[{"name":"eventId","type":"uint256","internalType":"uint256"}],"outputs":[],"stateMutability":"nonpayable"},{"type":"function","name":"createEvent","inputs":[{"name":"name","type":"string","internalType":"string"},{"name":"ticketPrice","type":"uint256","internalType":"uint256"},{"name":"maxTickets","type":"uint256","internalType":"uint256"},{"name":"startTime","type":"uint256","internalType":"uint256"},{"name":"endTime","type":"uint256","internalType":"uint256"},{"name":"_ticketUri","type":"string","internalType":"string"},{"name":"_eventType","type":"uint8","internalType":"enum LibStorage.EventType"},{"name":"_amountNeededForExpenses","type":"uint256","internalType":"uint256"}],"outputs":[],"stateMutability":"nonpayable"},{"type":"function","name":"getAllContractOwner","inputs":[],"outputs":[{"name":"","type":"address[]","internalType":"address[]"}],"stateMutability":"nonpayable"},{"type":"function","name":"getAllEvents","inputs":[],"outputs":[{"name":"","type":"tuple[]","internalType":"struct LibStorage.EventStruct[]","components":[{"name":"id","type":"uint256","internalType":"uint256"},{"name":"name","type":"string","internalType":"string"},{"name":"ticketPrice","type":"uint256","internalType":"uint256"},{"name":"maxTickets","type":"uint256","internalType":"uint256"},{"name":"ticketsSold","type":"uint256","internalType":"uint256"},{"name":"totalRevenue","type":"uint256","internalType":"uint256"},{"name":"startTime","type":"uint256","internalType":"uint256"},{"name":"endTime","type":"uint256","internalType":"uint256"},{"name":"status","type":"uint8","internalType":"enum LibStorage.Status"},{"name":"ticketUri","type":"string","internalType":"string"},{"name":"eventType","type":"uint8","internalType":"enum LibStorage.EventType"},{"name":"creator","type":"address","internalType":"address"},{"name":"amountNeededForExpenses","type":"uint256","internalType":"uint256"},{"name":"isPaid","type":"bool","internalType":"bool"}]}],"stateMutability":"view"},{"type":"function","name":"getAllSponsors","inputs":[{"name":"event_id","type":"uint256","internalType":"uint256"}],"outputs":[{"name":"","type":"tuple[]","internalType":"struct LibStorage.SponsorInfo[]","components":[{"name":"sponsor","type":"address","internalType":"address"},{"name":"amount","type":"uint256","internalType":"uint256"},{"name":"position","type":"uint256","internalType":"uint256"},{"name":"eventId","type":"uint256","internalType":"uint256"},{"name":"percentageContribution","type":"uint256","internalType":"uint256"}]}],"stateMutability":"nonpayable"},{"type":"function","name":"getEventInfo","inputs":[{"name":"eventId","type":"uint256","internalType":"uint256"}],"outputs":[{"name":"","type":"tuple","internalType":"struct LibStorage.EventStruct","components":[{"name":"id","type":"uint256","internalType":"uint256"},{"name":"name","type":"string","internalType":"string"},{"name":"ticketPrice","type":"uint256","internalType":"uint256"},{"name":"maxTickets","type":"uint256","internalType":"uint256"},{"name":"ticketsSold","type":"uint256","internalType":"uint256"},{"name":"totalRevenue","type":"uint256","internalType":"uint256"},{"name":"startTime","type":"uint256","internalType":"uint256"},{"name":"endTime","type":"uint256","internalType":"uint256"},{"name":"status","type":"uint8","internalType":"enum LibStorage.Status"},{"name":"ticketUri","type":"string","internalType":"string"},{"name":"eventType","type":"uint8","internalType":"enum LibStorage.EventType"},{"name":"creator","type":"address","internalType":"address"},{"name":"amountNeededForExpenses","type":"uint256","internalType":"uint256"},{"name":"isPaid","type":"bool","internalType":"bool"}]}],"stateMutability":"view"},{"type":"function","name":"getEventRevenue","inputs":[{"name":"eventId","type":"uint256","internalType":"uint256"}],"outputs":[{"name":"","type":"uint256","internalType":"uint256"}],"stateMutability":"view"},{"type":"function","name":"getEventWorkers","inputs":[{"name":"event_id","type":"uint256","internalType":"uint256"}],"outputs":[{"name":"","type":"tuple[]","internalType":"struct LibStorage.WorkerInfo[]","components":[{"name":"salary","type":"uint256","internalType":"uint256"},{"name":"paid","type":"bool","internalType":"bool"},{"name":"description","type":"string","internalType":"string"},{"name":"employee","type":"address","internalType":"address"},{"name":"position","type":"uint256","internalType":"uint256"}]}],"stateMutability":"nonpayable"},{"type":"function","name":"getOwner","inputs":[],"outputs":[{"name":"","type":"address","internalType":"address"}],"stateMutability":"view"},{"type":"function","name":"getSponsorInfo","inputs":[{"name":"sponsor","type":"address","internalType":"address"},{"name":"event_id","type":"uint256","internalType":"uint256"}],"outputs":[{"name":"","type":"tuple","internalType":"struct LibStorage.SponsorInfo","components":[{"name":"sponsor","type":"address","internalType":"address"},{"name":"amount","type":"uint256","internalType":"uint256"},{"name":"position","type":"uint256","internalType":"uint256"},{"name":"eventId","type":"uint256","internalType":"uint256"},{"name":"percentageContribution","type":"uint256","internalType":"uint256"}]}],"stateMutability":"nonpayable"},{"type":"function","name":"getTicketTotalSale","inputs":[{"name":"eventId","type":"uint256","internalType":"uint256"}],"outputs":[{"name":"","type":"uint256","internalType":"uint256"}],"stateMutability":"view"},{"type":"function","name":"getTotalCost","inputs":[{"name":"event_id","type":"uint256","internalType":"uint256"}],"outputs":[{"name":"","type":"uint256","internalType":"uint256"}],"stateMutability":"nonpayable"},{"type":"function","name":"getTotalSponsorship","inputs":[{"name":"event_id","type":"uint256","internalType":"uint256"}],"outputs":[{"name":"","type":"uint256","internalType":"uint256"}],"stateMutability":"nonpayable"},{"type":"function","name":"getWorkerInfo","inputs":[{"name":"employee","type":"address","internalType":"address"},{"name":"eventId","type":"uint256","internalType":"uint256"}],"outputs":[{"name":"","type":"tuple","internalType":"struct LibStorage.WorkerInfo","components":[{"name":"salary","type":"uint256","internalType":"uint256"},{"name":"paid","type":"bool","internalType":"bool"},{"name":"description","type":"string","internalType":"string"},{"name":"employee","type":"address","internalType":"address"},{"name":"position","type":"uint256","internalType":"uint256"}]}],"stateMutability":"nonpayable"},{"type":"function","name":"initialize","inputs":[{"name":"_owner","type":"address","internalType":"address"},{"name":"orgName","type":"string","internalType":"string"},{"name":"_ticketContract","type":"address","internalType":"address"},{"name":"_payrollContract","type":"address","internalType":"address"},{"name":"_sponsorVault","type":"address","internalType":"address"},{"name":"_paymentToken","type":"address","internalType":"address"},{"name":"adminFee","type":"uint256","internalType":"uint256"},{"name":"_adminFeeAddress","type":"address","internalType":"address"},{"name":"dev","type":"address","internalType":"address"}],"outputs":[],"stateMutability":"nonpayable"},{"type":"function","name":"pay","inputs":[],"outputs":[],"stateMutability":"nonpayable"},{"type":"function","name":"proxiableUUID","inputs":[],"outputs":[{"name":"","type":"bytes32","internalType":"bytes32"}],"stateMutability":"view"},{"type":"function","name":"sponsorEvent","inputs":[{"name":"eventId","type":"uint256","internalType":"uint256"},{"name":"amount","type":"uint256","internalType":"uint256"}],"outputs":[],"stateMutability":"nonpayable"},{"type":"function","name":"updateWorkerAddress","inputs":[{"name":"newAddress","type":"address","internalType":"address"},{"name":"oldAddress","type":"address","internalType":"address"},{"name":"eventId","type":"uint256","internalType":"uint256"}],"outputs":[],"stateMutability":"nonpayable"},{"type":"function","name":"updateWorkerSalary","inputs":[{"name":"employeeAddress","type":"address","internalType":"address"},{"name":"newSalary","type":"uint256","internalType":"uint256"},{"name":"eventId","type":"uint256","internalType":"uint256"}],"outputs":[],"stateMutability":"nonpayable"},{"type":"function","name":"upgradeToAndCall","inputs":[{"name":"newImplementation","type":"address","internalType":"address"},{"name":"data","type":"bytes","internalType":"bytes"}],"outputs":[],"stateMutability":"payable"},{"type":"event","name":"CreatedEvent","inputs":[{"name":"creator","type":"address","indexed":true,"internalType":"address"},{"name":"name","type":"string","indexed":false,"internalType":"string"},{"name":"startTime","type":"uint256","indexed":false,"internalType":"uint256"},{"name":"endTime","type":"uint256","indexed":false,"internalType":"uint256"}],"anonymous":false},{"type":"event","name":"EventPaid","inputs":[{"name":"eventId","type":"uint256","indexed":false,"internalType":"uint256"},{"name":"timestamp","type":"uint256","indexed":false,"internalType":"uint256"}],"anonymous":false},{"type":"event","name":"Initialized","inputs":[{"name":"version","type":"uint64","indexed":false,"internalType":"uint64"}],"anonymous":false},{"type":"event","name":"ModuleOwners","inputs":[{"name":"modules","type":"address[]","indexed":true,"internalType":"address[]"}],"anonymous":false},{"type":"event","name":"Upgraded","inputs":[{"name":"implementation","type":"address","indexed":true,"internalType":"address"}],"anonymous":false},{"type":"event","name":"ownerAndCaller","inputs":[{"name":"owner","type":"address","indexed":true,"internalType":"address"},{"name":"caller","type":"address","indexed":true,"internalType":"address"}],"anonymous":false},{"type":"error","name":"AddressEmptyCode","inputs":[{"name":"target","type":"address","internalType":"address"}]},{"type":"error","name":"ERC1967InvalidImplementation","inputs":[{"name":"implementation","type":"address","internalType":"address"}]},{"type":"error","name":"ERC1967NonPayable","inputs":[]},{"type":"error","name":"FailedCall","inputs":[]},{"type":"error","name":"INVALID_TIME_RANGE","inputs":[]},{"type":"error","name":"InvalidInitialization","inputs":[]},{"type":"error","name":"NotInitializing","inputs":[]},{"type":"error","name":"ReentrancyGuardReentrantCall","inputs":[]},{"type":"error","name":"START_MUST_BE_IN_FUTURE","inputs":[]},{"type":"error","name":"UUPSUnauthorizedCallContext","inputs":[]},{"type":"error","name":"UUPSUnsupportedProxiableUUID","inputs":[{"name":"slot","type":"bytes32","internalType":"bytes32"}]}],"bytecode":{"object":"0x60a0806040523460295730608052612e98908161002e823960805181818161099d0152610b440152f35b5f80fdfe60806040526004361015610011575f80fd5b5f3560e01c80630ab97ecc146101945780631b9265b81461018f5780631d645b121461018a5780631fcbdd521461018557806326783308146101805780633119d3501461017b5780634cbd6fc6146101765780634f1ef2861461017157806352d1902d1461016c5780635fac323214610167578063605de51d1461016257806367dd74ca1461015d578063765f207914610158578063893d20e814610153578063a2d8e93f1461014e578063ad3cb1cc14610149578063b286334014610144578063b50a21921461013f578063c27a500d1461013a578063c2b753ad14610135578063c61db7c114610130578063d01ffd601461012b578063d7e842f1146101265763e2e8fb8414610121575f80fd5b61158b565b6114fa565b6114a8565b6113a1565b611247565b611130565b611069565b610fb3565b610f6c565b610e55565b610e00565b610d7b565b610cf6565b610c81565b610b89565b610b32565b61094a565b6108f8565b61084b565b610782565b610574565b610469565b610309565b61028f565b634e487b7160e01b5f52604160045260245ffd5b6101c081019081106001600160401b038211176101c957604052565b610199565b60a081019081106001600160401b038211176101c957604052565b90601f801991011681019081106001600160401b038211176101c957604052565b6040519061021a6101c0836101e9565b565b6001600160401b0381116101c957601f01601f191660200190565b9291926102438261021c565b9161025160405193846101e9565b82948184528183011161026d578281602093845f960137010152565b5f80fd5b9080601f8301121561026d5781602061028c93359101610237565b90565b3461026d5761010036600319011261026d576004356001600160401b03811161026d576102c0903690600401610271565b6024359060443560643560843560a4356001600160401b03811161026d576102ec903690600401610271565b9160c43593600285101561026d576103079660e435966116c0565b005b3461026d575f36600319011261026d57610307611f4a565b805180835260209291819084018484015e5f828201840152601f01601f1916010190565b634e487b7160e01b5f52602160045260245ffd5b6004111561036357565b610345565b9060048210156103635752565b6002111561036357565b9060028210156103635752565b9061028c90825181526101a08061041b6103b760208701516101c060208701526101c0860190610321565b60408701516040860152606087015160608601526080870151608086015260a087015160a086015260c087015160c086015260e087015160e0860152610407610100880151610100870190610368565b610120870151858203610120870152610321565b9461043061014082015161014086019061037f565b610160818101516001600160a01b031690850152610180818101519085015201511515910152565b90602061028c92818152019061038c565b3461026d57602036600319011261026d5761052e61052261051d6004355f6101a0604051610496816101ad565b828152606060208201528260408201528260608201528260808201528260a08201528260c08201528260e082015282610100820152606061012082015282610140820152826101608201528261018082015201526105035f516020612d435f395f51905f52548210612126565b5f525f516020612da35f395f51905f5260205260405f2090565b612207565b60405191829182610458565b0390f35b60206040818301928281528451809452019201905f5b8181106105555750505090565b82516001600160a01b0316845260209384019390920191600101610548565b3461026d575f36600319011261026d5761058c6122f6565b6106106105f86105b86105e96105c46105b85f516020612d035f395f51905f525460018060a01b031690565b6001600160a01b031690565b604051634661d5fb60e11b602082015260048152906105e46024836101e9565b612adf565b60208082518301019101612318565b6106018361232d565b6001600160a01b039091169052565b61067861066f6105b86105e961064f6105b87f34996e8e7836f23b0aaeabe6ac4ec3c4922c3ba17f363207b6779934a0c600775460018060a01b031690565b604051633b63d0f560e21b602082015260048152906105e46024836101e9565b6106018361233a565b6106cd6106c46105b86105e96106a46105b85f516020612d635f395f51905f525460018060a01b031690565b604051634b0beda160e11b602082015260048152906105e46024836101e9565b6106018361234a565b6106d68161235a565b61052e6040519283927f01757fe0d4d9c87073a45bb42ace02adc71f964ad33d0bfdad6038e8cc68496d5f80a282610532565b6001600160a01b0381160361026d57565b610104359061021a82610709565b9081518152602082015115156020820152608080610755604085015160a0604086015260a0850190610321565b6060808601516001600160a01b03169085015293015191015290565b90602061028c928181520190610728565b3461026d57604036600319011261026d5761052e61083f6108306004356107a881610709565b602435905f60806040516107bb816101ce565b82815260208101839052606060408201819052810183905201525f516020612d035f395f51905f52546105e4906001600160a01b03166040516304cf066160e31b60208201526001600160a01b039093166024840152604483019390935290919082606481015b03601f1981018452836101e9565b60208082518301019101612453565b60405191829182610771565b3461026d57606036600319011261026d5761030760043561086b81610709565b6024356044355f516020612e435f395f51905f52546108a7906001600160a01b031633815f516020612ce35f395f51905f525f80a33314611674565b5f516020612d035f395f51905f52546040516303119d3560e41b60208201526001600160a01b03948516602482015260448101939093526064808401929092529082529091166105e46084836101e9565b3461026d57602036600319011261026d576004356109255f516020612d435f395f51905f52548210612126565b5f525f516020612da35f395f51905f526020526020600560405f200154604051908152f35b604036600319011261026d5760043561096281610709565b6024356001600160401b03811161026d573660238201121561026d57610992903690602481600401359101610237565b906001600160a01b037f000000000000000000000000000000000000000000000000000000000000000016308114908115610b10575b50610b01577f34996e8e7836f23b0aaeabe6ac4ec3c4922c3ba17f363207b6779934a0c60076546001600160a01b03163303610aab576040516352d1902d60e01b8152916020836004816001600160a01b0386165afa5f9381610a7a575b50610a4757634c9c8ce360e01b5f526001600160a01b03821660045260245ffd5b905f516020612d235f395f51905f528303610a66576103079250612ba2565b632a87526960e21b5f52600483905260245ffd5b610a9d91945060203d602011610aa4575b610a9581836101e9565b8101906124db565b925f610a26565b503d610a8b565b60405162461bcd60e51b815260206004820152602860248201527f696d706c20417574686f72697a653a204e6f7420696d706c656d656e7461746960448201526737b71037bbb732b960c11b6064820152608490fd5b63703e46dd60e11b5f5260045ffd5b5f516020612d235f395f51905f52546001600160a01b0316141590505f6109c8565b3461026d575f36600319011261026d577f00000000000000000000000000000000000000000000000000000000000000006001600160a01b03163003610b015760206040515f516020612d235f395f51905f528152f35b3461026d57604036600319011261026d5761052e610c3c610c2d600435610baf81610709565b602435905f6080604051610bc2816101ce565b82815260208101839052604081018390526060810183905201525f516020612d635f395f51905f52546105e4906001600160a01b0316604051632fd6191960e11b60208201526001600160a01b03909316602484015260448301939093529091908260648101610822565b602080825183010191016124c7565b6040519182918281516001600160a01b031681526020808301519082015260408083015190820152606080830151908201526080918201519181019190915260a00190565b3461026d57602036600319011261026d575f516020612d635f395f51905f525460405163605de51d60e01b60208201526004356024808301919091528152610ceb91610cdc91906001600160a01b03166105e46044836101e9565b602080825183010191016124db565b604051908152602090f35b3461026d57602036600319011261026d57610d67600435610d15612b47565b7f34996e8e7836f23b0aaeabe6ac4ec3c4922c3ba17f363207b6779934a0c60077546040516333eeba6560e11b60208201526024808201939093529182526001600160a01b03166105e46044836101e9565b5060015f516020612de35f395f51905f5255005b3461026d57602036600319011261026d5761052e610df0610cdc600435610db15f516020612d435f395f51905f52548210612126565b5f516020612d035f395f51905f525460405163765f207960e01b60208201526024808201939093529182526001600160a01b03166105e46044836101e9565b6040519081529081906020820190565b3461026d575f36600319011261026d575f516020612e435f395f51905f52546040516001600160a01b039091168152602090f35b6001600160401b0381116101c95760051b60200190565b8015150361026d57565b3461026d57604036600319011261026d576004356001600160401b03811161026d573660238201121561026d57806004013590610e9182610e34565b90610e9f60405192836101e9565b8282526024602083019360051b8201019036821161026d5760248101935b828510610ed057610307602435856124ea565b84356001600160401b03811161026d57820160a0602319823603011261026d5760405191610efd836101ce565b602482013583526044820135610f1281610e4b565b60208401526064820135926001600160401b03841161026d5760a460209493610f42869560243691840101610271565b60408401526084810135610f5581610709565b606084015201356080820152815201940193610ebd565b3461026d575f36600319011261026d5761052e604051610f8d6040826101e9565b60058152640352e302e360dc1b6020820152604051918291602083526020830190610321565b3461026d57606036600319011261026d57610307600435610fd381610709565b602435610fdf81610709565b6044355f516020612e435f395f51905f5254611018906001600160a01b031633815f516020612ce35f395f51905f525f80a33314611674565b5f516020612d035f395f51905f52546040516302ca18cd60e61b60208201526001600160a01b03948516602482015292841660448401526064808401929092529082529091166105e46084836101e9565b3461026d57604036600319011261026d57610d6760043560243561108b612b47565b5f516020612d635f395f51905f5254604051635a8510c960e11b602082015260248101929092526044820192909252906001600160a01b03166105e48260648101610822565b602081016020825282518091526040820191602060408360051b8301019401925f915b83831061110357505050505090565b9091929394602080611121600193603f19868203018752895161038c565b970193019301919392906110f4565b3461026d575f36600319011261026d575f516020612dc35f395f51905f525461115881610e34565b9061116660405192836101e9565b8082525f516020612dc35f395f51905f525f9081527fc2f297a48aa32e8469eb530b328c60dce6205721ecde4314bb26aafd7b1dd93a602084015b8383106111b6576040518061052e87826110d1565b600d60206001926111c685612207565b8152019201920191906111a1565b60206040818301928281528451809452019201905f5b8181106111f75750505090565b909192602060a08261123c60019488516080809160018060a01b0381511684526020810151602085015260408101516040850152606081015160608501520151910152565b0194019291016111ea565b3461026d57602036600319011261026d5761129d6004355f516020612d635f395f51905f525460405163c2b753ad60e01b60208201526024808201939093529182526001600160a01b03166105e46044836101e9565b805181019060208181840193031261026d576020810151906001600160401b03821161026d570181603f8201121561026d5760208101516112dd81610e34565b926112eb60405194856101e9565b81845260208060a08187019402850101019281841161026d57604001915b83831061131e576040518061052e87826111d4565b602060a09161132d8486612478565b815201920191611309565b9080602083519182815201916020808360051b8301019401925f915b83831061136357505050505090565b9091929394602080611381600193601f198682030187528951610728565b97019301930191939290611354565b90602061028c928181520190611338565b3461026d57602036600319011261026d576113f76004355f516020612d035f395f51905f525460405163294c1d1d60e01b60208201526024808201939093529182526001600160a01b03166105e46044836101e9565b805181019060208181840193031261026d576020810151906001600160401b03821161026d570181603f8201121561026d57602081015161143781610e34565b9161144560405193846101e9565b8183526020808085019360051b830101019184831161026d5760408201905b838210611479576040518061052e8782611390565b81516001600160401b03811161026d5760209161149d8884808095890101016123a8565b815201910190611464565b3461026d57602036600319011261026d576004356114d55f516020612d435f395f51905f52548210612126565b5f525f516020612da35f395f51905f526020526020600460405f200154604051908152f35b3461026d5761012036600319011261026d5760043561151881610709565b602435906001600160401b03821161026d5761153b610307923690600401610271565b60443561154781610709565b60643561155381610709565b60843561155f81610709565b60a4359161156c83610709565b60c4359360e4359561157d87610709565b61158561071a565b97612579565b3461026d57608036600319011261026d576024356004356001600160401b03821161026d576115c1610307923690600401610271565b906105e4604435916115d283610709565b5f516020612e435f395f51905f5254606435939061160d906001600160a01b031633815f516020612ce35f395f51905f525f80a33314611674565b60018060a01b035f516020612d035f395f51905f525416936116516040519687946338ba3ee160e21b602087015260248601526080604486015260a4850190610321565b6001600160a01b039092166064840152608483015203601f1981018452836101e9565b1561167b57565b60405162461bcd60e51b815260206004820152601960248201527f696d706c204f6e6c796f776e65723a204e6f74206f776e6572000000000000006044820152606490fd5b92939596919094966116fc60018060a01b035f516020612e435f395f51905f52541633815f516020612ce35f395f51905f525f80a33314611674565b868510156118175742851115611808576117dd976117d8976117b29661177b945f516020612d435f395f51905f52549961173461020a565b988b8a5260208a0152604089015260608801525f60808801525f60a088015260c087015260e086015261176b610100860160019052565b6101208501526101408401611832565b336101608301526101808201525f6101a08201526117ad835f525f516020612da35f395f51905f5260205260405f2090565b611a21565b6105036117d3825f525f516020612da35f395f51905f5260205260405f2090565b611d6f565b611dbe565b61021a6117f75f516020612d435f395f51905f5254611e1b565b5f516020612d435f395f51905f5255565b637ad3992360e11b5f5260045ffd5b6399addf2560e01b5f5260045ffd5b60048210156103635752565b60028210156103635752565b634e487b7160e01b5f525f60045260245ffd5b90600182811c9216801561187f575b602083101461186b57565b634e487b7160e01b5f52602260045260245ffd5b91607f1691611860565b818110611894575050565b5f8155600101611889565b90601f82116118ac575050565b61021a915f516020612d835f395f51905f525f5260205f20906020601f840160051c830193106118e4575b601f0160051c0190611889565b90915081906118d7565b9190601f81116118fd57505050565b61021a925f5260205f20906020601f840160051c830193106118e457601f0160051c0190611889565b91909182516001600160401b0381116101c95761194d816119478454611851565b846118ee565b6020601f821160011461198c57819061197d9394955f92611981575b50508160011b915f199060031b1c19161790565b9055565b015190505f80611969565b601f1982169061199f845f5260205f2090565b915f5b8181106119d9575095836001959697106119c1575b505050811b019055565b01515f1960f88460031b161c191690555f80806119b7565b9192602060018192868b0151815501940192016119a2565b9060048110156103635760ff80198354169116179055565b9060028110156103635760ff80198354169116179055565b600c611b0e6101a061021a9480518555611a42602082015160018701611926565b60408101516002860155606081015160038601556080810151600486015560a0810151600586015560c0810151600686015560e08101516007860155611a99610100820151611a9081610359565b600887016119f1565b611aab61012082015160098701611926565b611afc600a8601611aca610140840151611ac481610375565b82611a09565b6101608301516001600160a01b03165b8154610100600160a81b03191660089190911b610100600160a81b0316179055565b610180810151600b8601550151151590565b91019060ff801983541691151516179055565b634e487b7160e01b5f52603260045260245ffd5b5f516020612e235f395f51905f5254811015611b69575f516020612e235f395f51905f525f52600d60205f20910201905f90565b611b21565b5f516020612dc35f395f51905f5254811015611b69575f516020612dc35f395f51905f525f52600d60205f20910201905f90565b8054821015611b69575f52600d60205f20910201905f90565b919091828114611c9657611bcf8354611851565b6001600160401b0381116101c957611beb816119478454611851565b5f93601f8211600114611c255761197d92939482915f92611c1a5750508160011b915f199060031b1c19161790565b015490505f80611969565b611c37601f198316915f5260205f2090565b94611c45845f5260205f2090565b915f5b818110611c7e57509583600195969710611c6657505050811b019055565b01545f1960f88460031b161c191690555f80806119b7565b9192600180602092868b015481550194019201611c48565b509050565b90611d6a57818103611cab575050565b600c611b0e818461021a95548555611cc96001820160018701611bbb565b600281015460028601556003810154600386015560048101546004860155600581015460058601556006810154600686015560078101546007860155611d16611a90600883015460ff1690565b611d266009820160098701611bbb565b611d58600a8601611ada600a8401611d48611d42825460ff1690565b84611a09565b5460081c6001600160a01b031690565b600b810154600b860155015460ff1690565b61183e565b5f516020612dc35f395f51905f525490600160401b8210156101c957611db882600161021a94015f516020612dc35f395f51905f52555f516020612dc35f395f51905f52611ba2565b90611c9b565b5f516020612e235f395f51905f525490600160401b8210156101c957611db882600161021a94015f516020612e235f395f51905f52555f516020612e235f395f51905f52611ba2565b634e487b7160e01b5f52601160045260245ffd5b5f198114611e295760010190565b611e07565b5f19810191908211611e2957565b611e468154611851565b9081611e50575050565b81601f5f9311600114611e61575055565b81835260208320611e7d91601f0160051c810190600101611889565b808252602082209081548360011b9084198560031b1c191617905555565b5f516020612e235f395f51905f52548015611f36575f1901611eca815f516020612e235f395f51905f52611ba2565b611d6a57600c815f809355611ee160018201611e3c565b826002820155826003820155826004820155826005820155826006820155826007820155826008820155611f1760098201611e3c565b82600a82015582600b82015501555f516020612e235f395f51905f5255565b634e487b7160e01b5f52603160045260245ffd5b5f516020612e235f395f51905f52541561021a575f5b5f516020612e235f395f51905f52548110156121235780611f97611f93600c611f8a600195611b35565b50015460ff1690565b1590565b8061210d575b611fa8575b01611f60565b7f308e6d6dd19bfeaf8284c4ecdca0242629fb4b534d8c63df3d0d07cfeb71b879612105611fd583611b35565b5054611ff4600c611fe583611b6e565b5001805460ff19166001179055565b612025600c612017835f525f516020612da35f395f51905f5260205260405f2090565b01805460ff19166001179055565b5f516020612d035f395f51905f525461206f9061204a906001600160a01b03166105b8565b60405163615ad55160e11b602082015260248101849052906105e48260448101610822565b505f516020612d635f395f51905f52546120ba90612095906001600160a01b03166105b8565b604051634631928960e11b602082015260248101849052906105e48260448101610822565b506120e76120dd6120d85f516020612e235f395f51905f5254611e2e565b611b35565b50611db886611b35565b6120ef611e9b565b6040805191825242602083015290918291820190565b0390a1611fa2565b50600761211982611b35565b5001544211611f9d565b50565b1561212d57565b60405162461bcd60e51b8152602060048201526014602482015273115d995b9d08191bd95cc81b9bdd08195e1a5cdd60621b6044820152606490fd5b9060405191825f82549261217c84611851565b80845293600181169081156121e557506001146121a1575b5061021a925003836101e9565b90505f9291925260205f20905f915b8183106121c957505090602061021a928201015f612194565b60209193508060019154838589010152019101909184926121b0565b90506020925061021a94915060ff191682840152151560051b8201015f612194565b9061021a6122ec600c61221861020a565b948054865261222960018201612169565b6020870152600281015460408701526003810154606087015260048101546080870152600581015460a0870152600681015460c0870152600781015460e087015261228561227b600883015460ff1690565b6101008801611826565b61229160098201612169565b6101208701526122d96122c8600a8301546122b96122af8260ff1690565b6101408b01611832565b60081c6001600160a01b031690565b6001600160a01b0316610160880152565b600b810154610180870152015460ff1690565b15156101a0840152565b6040516080919061230783826101e9565b6003815291601f1901366020840137565b9081602091031261026d575161028c81610709565b805115611b695760200190565b805160011015611b695760400190565b805160021015611b695760600190565b6040518091829160208251919201905f5b81811061237b5750505003902090565b82516001600160a01b031684528594506020938401939092019160010161236b565b519061021a82610709565b919060a08382031261026d57604051906123c1826101ce565b81938051835260208101516123d581610e4b565b602084015260408101516001600160401b03811161026d5781019082601f8301121561026d578151926124078461021c565b9061241560405192836101e9565b8482526020858501011161026d575f602085608096828897018386015e8301015260408501526124476060820161239d565b60608501520151910152565b9060208282031261026d5781516001600160401b03811161026d5761028c92016123a8565b91908260a091031261026d57604051612490816101ce565b608080829480516124a081610709565b84526020810151602085015260408101516040850152606081015160608501520151910152565b9060a08282031261026d5761028c91612478565b9081602091031261026d575190565b612123916105e46125659261252960018060a01b035f516020612e435f395f51905f52541633815f516020612ce35f395f51905f525f80a33314611674565b60018060a01b035f516020612d035f395f51905f5254169260405194859263a2d8e93f60e01b6020850152604060248501526064840190611338565b90604483015203601f1981018452836101e9565b96949290979593915f516020612e035f395f51905f5254986001600160401b036125b96125ac60ff8d60401c1615151590565b9b6001600160401b031690565b16801590816126ce575b60011490816126c4575b1590816126bb575b506126ac57612618988a61260f60016001600160401b03195f516020612e035f395f51905f525416175f516020612e035f395f51905f5255565b612677576126d6565b61261e57565b61264860ff60401b195f516020612e035f395f51905f5254165f516020612e035f395f51905f5255565b604051600181527fc7f505b2f371ae2175ee4913f4499e1f2633a7b5936321eed1cdaeb6115181d290602090a1565b6126a7600160401b60ff60401b195f516020612e035f395f51905f525416175f516020612e035f395f51905f5255565b6126d6565b63f92ee8a960e01b5f5260045ffd5b9050155f6125d5565b303b1591506125cd565b8b91506125c3565b5f516020612e435f395f51905f5280546001600160a01b0319166001600160a01b0383161790559098979396929591949089516001600160401b0381116101c957612737816127325f516020612d835f395f51905f5254611851565b61189f565b6020601f82116001146129bf576129129461283861295398956127dd6129af9e9f6128b7976127896129819f9e9c988061285c996127d0955f926119815750508160011b915f199060031b1c19161790565b5f516020612d835f395f51905f52556001600160a01b03165f9081527f34996e8e7836f23b0aaeabe6ac4ec3c4922c3ba17f363207b6779934a0c600726020526040902090565b805460ff19166001179055565b60018060a01b03166001600160601b0360a01b7f34996e8e7836f23b0aaeabe6ac4ec3c4922c3ba17f363207b6779934a0c6005b5416177f34996e8e7836f23b0aaeabe6ac4ec3c4922c3ba17f363207b6779934a0c6005b55565b7f34996e8e7836f23b0aaeabe6ac4ec3c4922c3ba17f363207b6779934a0c6007455565b60018060a01b03166001600160601b0360a01b7f34996e8e7836f23b0aaeabe6ac4ec3c4922c3ba17f363207b6779934a0c600755416177f34996e8e7836f23b0aaeabe6ac4ec3c4922c3ba17f363207b6779934a0c6007555565b60018060a01b03166001600160601b0360a01b7f34996e8e7836f23b0aaeabe6ac4ec3c4922c3ba17f363207b6779934a0c600765416177f34996e8e7836f23b0aaeabe6ac4ec3c4922c3ba17f363207b6779934a0c6007655565b7f34996e8e7836f23b0aaeabe6ac4ec3c4922c3ba17f363207b6779934a0c6007780546001600160a01b0319166001600160a01b0392909216919091179055565b5f516020612d035f395f51905f5280546001600160a01b0319166001600160a01b0392909216919091179055565b5f516020612d635f395f51905f5280546001600160a01b0319166001600160a01b0392909216919091179055565b6129b7612c41565b61021a612b7f565b5f516020612d835f395f51905f525f52601f1982169b7fa14d8b240e66b1879e4cec7d584be6de2b854ee58bde75e115fced4cb4bc2ef09c5f5b818110612a98575061295398956127dd6129af9e9f6128b79760016129819f9e9c986127d09361285c996129129e99836128389a10612a80575b505050811b015f516020612d835f395f51905f52556001600160a01b03165f9081527f34996e8e7836f23b0aaeabe6ac4ec3c4922c3ba17f363207b6779934a0c600726020526040902090565b01515f1960f88460031b161c191690555f8080612a33565b838301518f556001909e019d602093840193016129f9565b3d15612ada573d90612ac18261021c565b91612acf60405193846101e9565b82523d5f602084013e565b606090565b5f918291602082519201905af4612af4612ab0565b9015612afd5790565b805115612b0c57602081519101fd5b60405162461bcd60e51b815260206004820152601360248201527211195b1959d85d1958d85b1b0819985a5b1959606a1b6044820152606490fd5b60025f516020612de35f395f51905f525414612b705760025f516020612de35f395f51905f5255565b633ee5aeb560e01b5f5260045ffd5b612b87612c41565b612b8f612c41565b60015f516020612de35f395f51905f5255565b90813b15612c20575f516020612d235f395f51905f5280546001600160a01b0319166001600160a01b0384169081179091557fbc7cd75a20ee27fd9adebab32041f755214dbc6bffa90cc0225b39da2e5c2d3b5f80a2805115612c085761212391612c6c565b505034612c1157565b63b398979f60e01b5f5260045ffd5b50634c9c8ce360e01b5f9081526001600160a01b0391909116600452602490fd5b60ff5f516020612e035f395f51905f525460401c1615612c5d57565b631afcd79f60e31b5f5260045ffd5b5f8061028c93602081519101845af4612c83612ab0565b9190612ca85750805115612c9957602081519101fd5b63d6bda27560e01b5f5260045ffd5b81511580612cd9575b612cb9575090565b639996b31560e01b5f9081526001600160a01b0391909116600452602490fd5b50803b15612cb156fe32a154982af30da403d30ecace5dfdaa326ad1058011d0c93fcfe42f628b63f934996e8e7836f23b0aaeabe6ac4ec3c4922c3ba17f363207b6779934a0c60078360894a13ba1a3210667c828492db98dca3e2076cc3735a920a3ca505d382bbc34996e8e7836f23b0aaeabe6ac4ec3c4922c3ba17f363207b6779934a0c6006334996e8e7836f23b0aaeabe6ac4ec3c4922c3ba17f363207b6779934a0c6007934996e8e7836f23b0aaeabe6ac4ec3c4922c3ba17f363207b6779934a0c6007334996e8e7836f23b0aaeabe6ac4ec3c4922c3ba17f363207b6779934a0c6006534996e8e7836f23b0aaeabe6ac4ec3c4922c3ba17f363207b6779934a0c600679b779b17422d0df92223018b32b4d1fa46e071723d6817e2486d003becc55f00f0c57e16840df040f15088dc2f81fe391c3923bec73e23a9662efc9c229c6a0034996e8e7836f23b0aaeabe6ac4ec3c4922c3ba17f363207b6779934a0c6006834996e8e7836f23b0aaeabe6ac4ec3c4922c3ba17f363207b6779934a0c60071a26469706673582212206f7735283044230541c64a429973d6c393f020d06d47189994fd4f8d04e4aabd64736f6c634300081e0033","linkReferences":{}},"methodIdentifiers":{"UPGRADE_INTERFACE_VERSION()":"ad3cb1cc","addWorkerToPayroll(uint256,string,address,uint256)":"e2e8fb84","addWorkersToPayroll((uint256,bool,string,address,uint256)[],uint256)":"a2d8e93f","buyTicket(uint256)":"67dd74ca","createEvent(string,uint256,uint256,uint256,uint256,string,uint8,uint256)":"0ab97ecc","getAllContractOwner()":"1fcbdd52","getAllEvents()":"c27a500d","getAllSponsors(uint256)":"c2b753ad","getEventInfo(uint256)":"1d645b12","getEventRevenue(uint256)":"4cbd6fc6","getEventWorkers(uint256)":"c61db7c1","getOwner()":"893d20e8","getSponsorInfo(address,uint256)":"5fac3232","getTicketTotalSale(uint256)":"d01ffd60","getTotalCost(uint256)":"765f2079","getTotalSponsorship(uint256)":"605de51d","getWorkerInfo(address,uint256)":"26783308","initialize(address,string,address,address,address,address,uint256,address,address)":"d7e842f1","pay()":"1b9265b8","proxiableUUID()":"52d1902d","sponsorEvent(uint256,uint256)":"b50a2192","updateWorkerAddress(address,address,uint256)":"b2863340","updateWorkerSalary(address,uint256,uint256)":"3119d350","upgradeToAndCall(address,bytes)":"4f1ef286"},"id":45}