{"abi":[{"type":"function","name":"addWorkerToPayroll","inputs":[{"name":"salary","type":"uint256","internalType":"uint256"},{"name":"description","type":"string","internalType":"string"},{"name":"employeeAddress","type":"address","internalType":"address"},{"name":"eventId","type":"uint256","internalType":"uint256"}],"outputs":[],"stateMutability":"nonpayable"},{"type":"function","name":"addWorkersToPayroll","inputs":[{"name":"workersInfo","type":"tuple[]","internalType":"struct LibStorage.WorkerInfo[]","components":[{"name":"salary","type":"uint256","internalType":"uint256"},{"name":"paid","type":"bool","internalType":"bool"},{"name":"description","type":"string","internalType":"string"},{"name":"employee","type":"address","internalType":"address"},{"name":"position","type":"uint256","internalType":"uint256"}]},{"name":"eventId","type":"uint256","internalType":"uint256"}],"outputs":[],"stateMutability":"nonpayable"},{"type":"function","name":"getAllWorker","inputs":[{"name":"event_id","type":"uint256","internalType":"uint256"}],"outputs":[{"name":"","type":"tuple[]","internalType":"struct LibStorage.WorkerInfo[]","components":[{"name":"salary","type":"uint256","internalType":"uint256"},{"name":"paid","type":"bool","internalType":"bool"},{"name":"description","type":"string","internalType":"string"},{"name":"employee","type":"address","internalType":"address"},{"name":"position","type":"uint256","internalType":"uint256"}]}],"stateMutability":"view"},{"type":"function","name":"getPayrollOwner","inputs":[],"outputs":[{"name":"","type":"address","internalType":"address"}],"stateMutability":"nonpayable"},{"type":"function","name":"getTotalCost","inputs":[{"name":"event_id","type":"uint256","internalType":"uint256"}],"outputs":[{"name":"","type":"uint256","internalType":"uint256"}],"stateMutability":"view"},{"type":"function","name":"getWorkerInfo","inputs":[{"name":"employee","type":"address","internalType":"address"},{"name":"eventId","type":"uint256","internalType":"uint256"}],"outputs":[{"name":"","type":"tuple","internalType":"struct LibStorage.WorkerInfo","components":[{"name":"salary","type":"uint256","internalType":"uint256"},{"name":"paid","type":"bool","internalType":"bool"},{"name":"description","type":"string","internalType":"string"},{"name":"employee","type":"address","internalType":"address"},{"name":"position","type":"uint256","internalType":"uint256"}]}],"stateMutability":"view"},{"type":"function","name":"payWorkers","inputs":[{"name":"event_id","type":"uint256","internalType":"uint256"}],"outputs":[],"stateMutability":"nonpayable"},{"type":"function","name":"removeWorker","inputs":[{"name":"event_id","type":"uint256","internalType":"uint256"},{"name":"employee","type":"address","internalType":"address"}],"outputs":[],"stateMutability":"nonpayable"},{"type":"function","name":"updateWorkerAddress","inputs":[{"name":"newAddress","type":"address","internalType":"address"},{"name":"oldAddress","type":"address","internalType":"address"},{"name":"eventId","type":"uint256","internalType":"uint256"}],"outputs":[],"stateMutability":"nonpayable"},{"type":"function","name":"updateWorkerSalary","inputs":[{"name":"employeeAddress","type":"address","internalType":"address"},{"name":"newSalary","type":"uint256","internalType":"uint256"},{"name":"eventId","type":"uint256","internalType":"uint256"}],"outputs":[],"stateMutability":"nonpayable"},{"type":"event","name":"PayrollPaid","inputs":[{"name":"employer","type":"address","indexed":true,"internalType":"address"},{"name":"employee","type":"address","indexed":true,"internalType":"address"},{"name":"amount","type":"uint256","indexed":false,"internalType":"uint256"},{"name":"paymentDate","type":"uint256","indexed":false,"internalType":"uint256"}],"anonymous":false},{"type":"event","name":"WorkerAdded","inputs":[{"name":"addedBy","type":"address","indexed":true,"internalType":"address"},{"name":"worker","type":"address","indexed":true,"internalType":"address"},{"name":"salary","type":"uint256","indexed":false,"internalType":"uint256"},{"name":"eventId","type":"uint256","indexed":false,"internalType":"uint256"}],"anonymous":false},{"type":"event","name":"WorkerAddressUpdated","inputs":[{"name":"updatedBy","type":"address","indexed":true,"internalType":"address"},{"name":"newAddress","type":"address","indexed":false,"internalType":"address"},{"name":"salary","type":"uint256","indexed":false,"internalType":"uint256"},{"name":"oldAddress","type":"address","indexed":false,"internalType":"address"}],"anonymous":false},{"type":"event","name":"WorkerRemoved","inputs":[{"name":"employee","type":"address","indexed":true,"internalType":"address"},{"name":"salary","type":"uint256","indexed":false,"internalType":"uint256"},{"name":"eventId","type":"uint256","indexed":false,"internalType":"uint256"}],"anonymous":false},{"type":"event","name":"WorkerSalaryUpdated","inputs":[{"name":"updatedBy","type":"address","indexed":true,"internalType":"address"},{"name":"worker","type":"address","indexed":false,"internalType":"address"},{"name":"newSalary","type":"uint256","indexed":false,"internalType":"uint256"},{"name":"oldSalary","type":"uint256","indexed":false,"internalType":"uint256"}],"anonymous":false},{"type":"event","name":"moduleOwner","inputs":[{"name":"owner","type":"address","indexed":true,"internalType":"address"},{"name":"moduleName","type":"string","indexed":false,"internalType":"string"}],"anonymous":false},{"type":"error","name":"INVALID_WORKER_ADDRESS","inputs":[]},{"type":"error","name":"NOT_ENOUGH_BALANCE_TO_PAY_WORKER","inputs":[]},{"type":"error","name":"NO_WORKER_TO_PAY","inputs":[]},{"type":"error","name":"WORKERS_CANNOT_BE_EMPTY","inputs":[]},{"type":"error","name":"WORKER_ALREADY_EXIST","inputs":[]},{"type":"error","name":"WORKER_DOES_NOT_EXIST","inputs":[]}],"bytecode":{"object":"0x608080604052346015576119ba908161001a8239f35b5f80fdfe6080806040526004361015610012575f80fd5b5f3560e01c908163267833081461118757508063294c1d1d146110335780633119d35014610ea3578063765f207914610e545780638cc3abf614610de25780638fa0559614610a7b578063a2d8e93f14610718578063b286334014610534578063c2b5aaa2146102745763e2e8fb841461008a575f80fd5b346102705760803660031901126102705760043560243567ffffffffffffffff8111610270576100be90369060040161135b565b6044356001600160a01b038116929190839003610270576064359060018060a01b035f5160206119655f395f51905f52541633148015610258575b6101029061154b565b8315610249576101215f5160206118e55f395f51905f525483106113b1565b5f8281525f5160206119455f395f51905f52602090815260408083208784529091529020600301546001600160a01b031661023a57815f525f5160206119055f395f51905f5260205260405f20546040519161017c836112f1565b8483525f602084015260408301528460608301526080820152815f525f5160206119455f395f51905f5260205260405f20845f526020526101c08160405f20611780565b815f525f5160206119055f395f51905f526020526101e18160405f206118bc565b51815f525f5160206119255f395f51905f5260205261020560405f209182546115c6565b905560405191825260208201527fde0990122befcc32e5d0719e27002aff4cf0d87d130a221e17943b82a2290b0f60403392a3005b632e84816760e11b5f5260045ffd5b633536054560e21b5f5260045ffd5b5061010260ff610267336113f4565b541690506100f9565b5f80fd5b34610270576020366003190112610270576004356102a15f5160206118e55f395f51905f525482106113b1565b805f525f5160206119055f395f51905f5260205260405f20805415610525577f34996e8e7836f23b0aaeabe6ac4ec3c4922c3ba17f363207b6779934a0c6005b546001600160a01b03165f5b825481101561052357610300818461158c565b509060018201805460ff81161561031e575b505060019150016102ed565b865f527f34996e8e7836f23b0aaeabe6ac4ec3c4922c3ba17f363207b6779934a0c6006c60205260405f205484541161051457600160ff1991821681179092555f8781525f5160206119455f395f51905f52602090815260408083206003880180546001600160a01b0390811686529184528285208701805490961690961790945584548754915163a9059cbb60e01b81529416600485015260248401529294929082906044908290895af1908115610509575f916104cf575b5015610499576001928154875f527f34996e8e7836f23b0aaeabe6ac4ec3c4922c3ba17f363207b6779934a0c6006c60205261041960405f209182546115b9565b90558154875f527f34996e8e7836f23b0aaeabe6ac4ec3c4922c3ba17f363207b6779934a0c6007060205261045360405f209182546115b9565b9055838060a01b0390541690546040519081524260208201527f47692569a3926785d868153c0a0e72f54d14168c13fc966b4d59f509cc2bf90460403392a38580610312565b60405162461bcd60e51b815260206004820152600e60248201526d14185e5b595b9d0819985a5b195960921b6044820152606490fd5b90506020813d8211610501575b816104e960209383611321565b810103126102705751801515810361027057876103d8565b3d91506104dc565b6040513d5f823e3d90fd5b63e001a17160e01b5f5260045ffd5b005b63536a3a1f60e01b5f5260045ffd5b346102705760603660031901126102705761054d611266565b61055561127c565b906044359160018060a01b035f5160206119655f395f51905f52541633148015610700575b6105839061154b565b61059c5f5160206118e55f395f51905f525484106113b1565b6001600160a01b031690811580156106ef575b610249575f8381525f5160206119455f395f51905f52602090815260408083208584529091529020600301546001600160a01b0316156106e057825f525f5160206119455f395f51905f5260205260405f20825f5260205261061360405f20611464565b9060018060a01b031692836060830152805f525f5160206119455f395f51905f5260205260405f20845f5260205261064e8260405f20611780565b805f525f5160206119455f395f51905f5260205260405f20835f5260205261067860405f2061170f565b5f525f5160206119055f395f51905f526020526106a7816106a160405f2060808301519061158c565b906118ad565b51604051928352602083015260408201527f4a9a7067b70b1c5a28c8c1d6346bdbf698e86b65b6d13c971ca441737ddd9a8f60603392a2005b63b6998fcd60e01b5f5260045ffd5b506001600160a01b038116156105af565b5061058360ff61070f336113f4565b5416905061057a565b346102705760403660031901126102705760043567ffffffffffffffff8111610270573660238201121561027057806004013561075481611343565b916107626040519384611321565b8183526024602084019260051b820101903682116102705760248101925b8284106109d557846024359060018060a01b035f5160206119655f395f51905f525416331480156109bd575b6107b59061154b565b8051156109ae576107d55f5160206118e55f395f51905f525483106113b1565b815f527f34996e8e7836f23b0aaeabe6ac4ec3c4922c3ba17f363207b6779934a0c6006560205260ff600860405f20015416600481101561099a57600103610962575f5b815181101561052357600581901b820160200151606081018051909291906001600160a01b031615610249575f8581525f5160206119455f395f51905f526020908152604080832086516001600160a01b0390811685529252909120600301541661023a575f8581525f5160206119055f395f51905f52602090815260408083205460808501528783525f5160206119455f395f51905f52825280832086516001600160a01b031684529091529020600193906108d7908390611780565b855f525f5160206119055f395f51905f526020526108f88260405f206118bc565b8151865f525f5160206119255f395f51905f5260205261091d60405f209182546115c6565b9055838060a01b0390511690516040519081528560208201527fde0990122befcc32e5d0719e27002aff4cf0d87d130a221e17943b82a2290b0f60403392a301610819565b60405162461bcd60e51b815260206004820152601060248201526f4576656e74206e6f742061637469766560801b6044820152606490fd5b634e487b7160e01b5f52602160045260245ffd5b633a4a6be960e01b5f5260045ffd5b506107b560ff6109cc336113f4565b541690506107ac565b833567ffffffffffffffff811161027057820160a060231982360301126102705760405191610a03836112f1565b6024820135835260448201358015158103610270576020840152606482013567ffffffffffffffff811161027057610a41906024369185010161135b565b60408401526084820135926001600160a01b03841684036102705760a4602094938594606084015201356080820152815201930192610780565b3461027057604036600319011261027057600435610a9761127c565b5f5160206119655f395f51905f52546001600160a01b031633148015610dca575b610ac19061154b565b610ada5f5160206118e55f395f51905f525483106113b1565b6001600160a01b0316908115610249575f8181525f5160206119455f395f51905f52602090815260408083208584529091529020600301546001600160a01b0316156106e057805f525f5160206119455f395f51905f5260205260405f20825f5260205260405f20815f525f5160206119055f395f51905f5260205260405f20916004820154835480156106e0575f198101908111610db657808203610cee575b505082548015610cda575f190191610b93838561158c565b939093610cc7577f59a283d642b5b7c49286644d5090272fc56360fc1033dfa22f29a9b1eedf4bf2945f600486826040985582600182015560028101610bd9815461142c565b9081610c84575b50508260038201550155555490805f525f5160206119455f395f51905f52602052825f20855f52602052610c15835f2061170f565b5f8181525f5160206119255f395f51905f52602052839020548211610c6657805f525f5160206119255f395f51905f52602052825f20610c568382546115b9565b90555b82519182526020820152a2005b805f525f5160206119255f395f51905f526020525f83812055610c59565b81601f869311600114610c9b5750555b8a80610be0565b81835260208320610cb791601f0160051c8101906001016115d3565b8082528160208120915555610c94565b634e487b7160e01b5f525f60045260245ffd5b634e487b7160e01b5f52603160045260245ffd5b610cf8908561158c565b50610d03828661158c565b610cc757818103610d4c575b505f8381525f5160206119455f395f51905f52602090815260408083206003909401546001600160a01b0316835292905220600401558480610b7b565b81548155610d7060ff600184015416600183019060ff801983541691151516179055565b610d80600283016002830161162e565b60038281015490820180546001600160a01b0319166001600160a01b039290921691909117905560048083015491015586610d0f565b634e487b7160e01b5f52601160045260245ffd5b50610ac160ff610dd9336113f4565b54169050610ab8565b34610270575f36600319011261027057602060018060a01b035f5160206119655f395f51905f525416807f4740c09ad36a55c0680f919d85b7f26baa28b30ed46e6d3f0fbdac8a44a6c5936060604051858152600786820152661c185e5c9bdb1b60ca1b6040820152a2604051908152f35b3461027057602036600319011261027057600435610e815f5160206118e55f395f51905f525482106113b1565b5f525f5160206119255f395f51905f52602052602060405f2054604051908152f35b3461027057606036600319011261027057610ebc611266565b5f5160206119655f395f51905f525460243591604435916001600160a01b03163314801561101b575b610eee9061154b565b6001600160a01b031691821561024957610f175f5160206118e55f395f51905f525483106113b1565b5f8281525f5160206119455f395f51905f52602090815260408083208684529091529020600301546001600160a01b0316156106e057815f525f5160206119455f395f51905f5260205260405f20835f5260205260405f209181610f9d845494828155835f525f5160206119055f395f51905f52602052600460405f209101549061158c565b5055805f525f5160206119255f395f51905f52602052610fca82610fc58560405f20546115b9565b6115c6565b905f525f5160206119255f395f51905f5260205260405f2055604051928352602083015260408201527fcfdda56780ba4c83d90ed78679f53c49c048edb3055174bada67db8062994f6e60603392a2005b50610eee60ff61102a336113f4565b54169050610ee5565b34610270576020366003190112610270576004356110605f5160206118e55f395f51905f525482106113b1565b805f525f5160206119055f395f51905f5260205260405f20541561114c575f525f5160206119055f395f51905f5260205260405f208054906110a182611343565b916110af6040519384611321565b8083526020830180925f5260205f205f915b83831061112e57848660405191829160208301906020845251809152604083019060408160051b85010192915f905b8282106110ff57505050500390f35b9193600191939550602061111e8192603f198a82030186528851611292565b96019201920185949391926110f0565b6005602060019261113e85611464565b8152019201920191906110c1565b60405162461bcd60e51b815260206004820152601360248201527232bb32b73a103430b9903737903bb7b935b2b960691b6044820152606490fd5b34610270576040366003190112610270576111a0611266565b905f6080602435926111b1816112f1565b8281528260208201526060604082015282606082015201526111e25f5160206118e55f395f51905f525482106113b1565b5f8181525f5160206119455f395f51905f52602090815260408083206001600160a01b03868116855292529091206003015416156106e0575f525f5160206119455f395f51905f5260205260405f209060018060a01b03165f5260205261126261124e60405f20611464565b604051918291602083526020830190611292565b0390f35b600435906001600160a01b038216820361027057565b602435906001600160a01b038216820361027057565b906020608060c0938051845282810151151583850152604081015160a0604086015280519384918260a0880152018686015e5f8484018601526060818101516001600160a01b03169085015201516080830152601f01601f1916010190565b60a0810190811067ffffffffffffffff82111761130d57604052565b634e487b7160e01b5f52604160045260245ffd5b90601f8019910116810190811067ffffffffffffffff82111761130d57604052565b67ffffffffffffffff811161130d5760051b60200190565b81601f820112156102705780359067ffffffffffffffff821161130d5760405192611390601f8401601f191660200185611321565b8284526020838301011161027057815f926020809301838601378301015290565b156113b857565b60405162461bcd60e51b8152602060048201526014602482015273115d995b9d08191bd95cc81b9bdd08195e1a5cdd60621b6044820152606490fd5b6001600160a01b03165f9081527f34996e8e7836f23b0aaeabe6ac4ec3c4922c3ba17f363207b6779934a0c600726020526040902090565b90600182811c9216801561145a575b602083101461144657565b634e487b7160e01b5f52602260045260245ffd5b91607f169161143b565b90604051611471816112f1565b80928054825260ff6001820154161515602083015260028101604051905f9080549061149c8261142c565b808552916001811690811561152457506001146114e7575b505091816114c86004936080950382611321565b604085015260038101546001600160a01b031660608501520154910152565b5f908152602081209092505b81831061150a5750508101602001816114c86114b4565b6001816020929493945483858801015201910191906114f3565b60ff191660208087019190915292151560051b850190920192508391506114c890506114b4565b1561155257565b60405162461bcd60e51b81526020600482015260126024820152713830bcb937b6361d102737ba1037bbb732b960711b6044820152606490fd5b80548210156115a5575f52600560205f20910201905f90565b634e487b7160e01b5f52603260045260245ffd5b91908203918211610db657565b91908201809211610db657565b8181106115de575050565b5f81556001016115d3565b9190601f81116115f857505050565b611622925f5260205f20906020601f840160051c83019310611624575b601f0160051c01906115d3565b565b9091508190611615565b91909182811461170a57611642835461142c565b67ffffffffffffffff811161130d576116658161165f845461142c565b846115e9565b5f93601f82116001146116a45761169592939482915f92611699575b50508160011b915f199060031b1c19161790565b9055565b015490505f80611681565b601f198216905f5260205f2094835f5260205f20915f5b8181106116f2575095836001959697106116da575b505050811b019055565b01545f1960f88460031b161c191690555f80806116d0565b9192600180602092868b0154815501940192016116bb565b509050565b60045f918281558260018201556002810161172a815461142c565b908161173d575b50508260038201550155565b81601f8693116001146117545750555b5f80611731565b8183526020832061177091601f0160051c8101906001016115d3565b808252816020812091555561174d565b90805182556117a460208201511515600184019060ff801983541691151516179055565b60028201604082015180519067ffffffffffffffff821161130d576117d3826117cd855461142c565b856115e9565b602090601f831160011461184457826004959360809593611808935f926118395750508160011b915f199060031b1c19161790565b90555b60608101516003850180546001600160a01b0319166001600160a01b03929092169190911790550151910155565b015190505f80611681565b90601f19831691845f52815f20925f5b818110611895575092600192859260049896608098961061187d575b505050811b01905561180b565b01515f1960f88460031b161c191690555f8080611870565b92936020600181928786015181550195019301611854565b9190610cc75761162291611780565b908154916801000000000000000083101561130d57826106a19160016116229501815561158c56fe34996e8e7836f23b0aaeabe6ac4ec3c4922c3ba17f363207b6779934a0c6006334996e8e7836f23b0aaeabe6ac4ec3c4922c3ba17f363207b6779934a0c6006a34996e8e7836f23b0aaeabe6ac4ec3c4922c3ba17f363207b6779934a0c6006b34996e8e7836f23b0aaeabe6ac4ec3c4922c3ba17f363207b6779934a0c6006934996e8e7836f23b0aaeabe6ac4ec3c4922c3ba17f363207b6779934a0c60071a26469706673582212207d680c60d7c4ae19ef6ff57d90f75506616d1f8f53929a15ff2862565ec93a4964736f6c634300081e0033","linkReferences":{}},"methodIdentifiers":{"addWorkerToPayroll(uint256,string,address,uint256)":"e2e8fb84","addWorkersToPayroll((uint256,bool,string,address,uint256)[],uint256)":"a2d8e93f","getAllWorker(uint256)":"294c1d1d","getPayrollOwner()":"8cc3abf6","getTotalCost(uint256)":"765f2079","getWorkerInfo(address,uint256)":"26783308","payWorkers(uint256)":"c2b5aaa2","removeWorker(uint256,address)":"8fa05596","updateWorkerAddress(address,address,uint256)":"b2863340","updateWorkerSalary(address,uint256,uint256)":"3119d350"},"id":48}