{"abi":[{"type":"function","name":"balanceOf","inputs":[{"name":"owner","type":"address","internalType":"address"}],"outputs":[{"name":"","type":"uint256","internalType":"uint256"}],"stateMutability":"view"},{"type":"function","name":"buyTicket","inputs":[{"name":"eventId","type":"uint256","internalType":"uint256"}],"outputs":[],"stateMutability":"nonpayable"},{"type":"function","name":"getTicketEvent","inputs":[{"name":"ticketId","type":"uint256","internalType":"uint256"}],"outputs":[{"name":"","type":"uint256","internalType":"uint256"}],"stateMutability":"view"},{"type":"function","name":"getTicketOwner","inputs":[],"outputs":[{"name":"","type":"address","internalType":"address"}],"stateMutability":"nonpayable"},{"type":"function","name":"ownerOf","inputs":[{"name":"tokenId","type":"uint256","internalType":"uint256"}],"outputs":[{"name":"","type":"address","internalType":"address"}],"stateMutability":"view"},{"type":"function","name":"tokenURI","inputs":[{"name":"tokenId","type":"uint256","internalType":"uint256"}],"outputs":[{"name":"","type":"string","internalType":"string"}],"stateMutability":"view"},{"type":"event","name":"Approval","inputs":[{"name":"owner","type":"address","indexed":true,"internalType":"address"},{"name":"approved","type":"address","indexed":true,"internalType":"address"},{"name":"tokenId","type":"uint256","indexed":true,"internalType":"uint256"}],"anonymous":false},{"type":"event","name":"ApprovalForAll","inputs":[{"name":"owner","type":"address","indexed":true,"internalType":"address"},{"name":"operator","type":"address","indexed":true,"internalType":"address"},{"name":"approved","type":"bool","indexed":false,"internalType":"bool"}],"anonymous":false},{"type":"event","name":"EventEnded","inputs":[{"name":"eventId","type":"uint256","indexed":true,"internalType":"uint256"}],"anonymous":false},{"type":"event","name":"EventSoldOut","inputs":[{"name":"eventId","type":"uint256","indexed":true,"internalType":"uint256"}],"anonymous":false},{"type":"event","name":"TicketPurchased","inputs":[{"name":"buyer","type":"address","indexed":true,"internalType":"address"},{"name":"eventId","type":"uint256","indexed":true,"internalType":"uint256"},{"name":"ticketId","type":"uint256","indexed":false,"internalType":"uint256"},{"name":"price","type":"uint256","indexed":false,"internalType":"uint256"}],"anonymous":false},{"type":"event","name":"Transfer","inputs":[{"name":"from","type":"address","indexed":true,"internalType":"address"},{"name":"to","type":"address","indexed":true,"internalType":"address"},{"name":"tokenId","type":"uint256","indexed":true,"internalType":"uint256"}],"anonymous":false},{"type":"event","name":"moduleOwner","inputs":[{"name":"owner","type":"address","indexed":true,"internalType":"address"},{"name":"moduleName","type":"string","indexed":false,"internalType":"string"}],"anonymous":false}],"bytecode":{"object":"0x60808060405234601557610c96908161001a8239f35b5f80fdfe6080806040526004361015610012575f80fd5b5f3560e01c9081636352211e14610a8e5750806367dd74ca1461035d57806370a082311461029a578063a433cbbc146101d8578063c87b56dd146100e65763ed8f43d41461005e575f80fd5b346100e2575f3660031901126100e257602060018060a01b037f34996e8e7836f23b0aaeabe6ac4ec3c4922c3ba17f363207b6779934a0c600715416807f4740c09ad36a55c0680f919d85b7f26baa28b30ed46e6d3f0fbdac8a44a6c5936060604051858152600686820152651d1a58dad95d60d21b6040820152a2604051908152f35b5f80fd5b346100e25760203660031901126100e2576004355f8181525f516020610c415f395f51905f5260205260409020546001600160a01b031615610183575f527f34996e8e7836f23b0aaeabe6ac4ec3c4922c3ba17f363207b6779934a0c6006260205260206040610157815f20610b85565b815192839181835280519182918282860152018484015e5f828201840152601f01601f19168101030190f35b60405162461bcd60e51b815260206004820152602760248201527f4552433732313a2055524920717565727920666f72206e6f6e6578697374656e6044820152663a103a37b5b2b760c91b6064820152608490fd5b346100e25760203660031901126100e2576004355f8181525f516020610c415f395f51905f5260205260409020546001600160a01b031615610249575f527f34996e8e7836f23b0aaeabe6ac4ec3c4922c3ba17f363207b6779934a0c60066602052602060405f2054604051908152f35b60405162461bcd60e51b815260206004820152602360248201527f4552433732313a20717565727920666f72206e6f6e6578697374656e7420746f60448201526235b2b760e91b6064820152608490fd5b346100e25760203660031901126100e2576004356001600160a01b0381168082036100e25715610305576001600160a01b03165f9081527f34996e8e7836f23b0aaeabe6ac4ec3c4922c3ba17f363207b6779934a0c6005f6020908152604090912054604051908152f35b60405162461bcd60e51b815260206004820152602a60248201527f4552433732313a2062616c616e636520717565727920666f7220746865207a65604482015269726f206164647265737360b01b6064820152608490fd5b346100e25760203660031901126100e257600435805f527f34996e8e7836f23b0aaeabe6ac4ec3c4922c3ba17f363207b6779934a0c6006560205260405f207f34996e8e7836f23b0aaeabe6ac4ec3c4922c3ba17f363207b6779934a0c6006354821015610a525760078101544211610a1b57600481018054906003830191825411156109e357600883019260ff8454166004811015610997576001036109ab5760ff600a820154166002811015610997576001146108af575b7f34996e8e7836f23b0aaeabe6ac4ec3c4922c3ba17f363207b6779934a0c600645490331561086b575f8281525f516020610c415f395f51905f5260205260409020546001600160a01b031661082657335f9081527f34996e8e7836f23b0aaeabe6ac4ec3c4922c3ba17f363207b6779934a0c6005f60205260409020805490600182018092116108125755815f525f516020610c415f395f51905f5260205260405f20336bffffffffffffffffffffffff60a01b82541617905581335f7fddf252ad1be2c89b69c2b068fc378daa952ba7f163c4a11628f55a4df523b3ef8180a461050560098201610b85565b5f8381525f516020610c415f395f51905f5260205260409020546001600160a01b0316156107c157825f527f34996e8e7836f23b0aaeabe6ac4ec3c4922c3ba17f363207b6779934a0c6006260205260405f209080519067ffffffffffffffff82116107ad5781906105778454610b4d565b601f811161075d575b50602090601f83116001146106fa575f926106ef575b50508160011b915f199060031b1c19161790555b60028101918683546040519083825260208201527f96541f70da731142b18e96f1def4d2a7733deb7d784723106d52c1d906d4c67a60403392a35f527f34996e8e7836f23b0aaeabe6ac4ec3c4922c3ba17f363207b6779934a0c600666020528560405f205561061a8354610c25565b835561062d600583549201918254610c33565b90556106597f34996e8e7836f23b0aaeabe6ac4ec3c4922c3ba17f363207b6779934a0c6006454610c25565b7f34996e8e7836f23b0aaeabe6ac4ec3c4922c3ba17f363207b6779934a0c600645554845f527f34996e8e7836f23b0aaeabe6ac4ec3c4922c3ba17f363207b6779934a0c600706020526106b260405f20918254610c33565b9055549054146106be57005b805460ff191660021790557f0291e1cc6c7c1e2da2aea38a16b02b5f1e5239aa57f4295520fa6ae5ad6b944d5f80a2005b015190508980610596565b5f8581528281209350601f198516905b818110610745575090846001959493921061072d575b505050811b0190556105aa565b01515f1960f88460031b161c19169055898080610720565b9293602060018192878601518155019501930161070a565b909150835f5260205f20601f840160051c810191602085106107a3575b90601f859493920160051c01905b8181106107955750610580565b5f8155849350600101610788565b909150819061077a565b634e487b7160e01b5f52604160045260245ffd5b60405162461bcd60e51b8152602060048201526024808201527f4552433732313a2055524920736574206f66206e6f6e6578697374656e74207460448201526337b5b2b760e11b6064820152608490fd5b634e487b7160e01b5f52601160045260245ffd5b60405162461bcd60e51b815260206004820152601c60248201527f4552433732313a20746f6b656e20616c7265616479206d696e746564000000006044820152606490fd5b606460405162461bcd60e51b815260206004820152602060248201527f4552433732313a206d696e7420746f20746865207a65726f20616464726573736044820152fd5b5f602060018060a01b037f34996e8e7836f23b0aaeabe6ac4ec3c4922c3ba17f363207b6779934a0c6005b54166064600285015460405194859384926323b872dd60e01b845233600485015230602485015260448401525af190811561098c575f91610951575b506104175760405162461bcd60e51b815260206004820152600e60248201526d14185e5b595b9d0819985a5b195960921b6044820152606490fd5b90506020813d602011610984575b8161096c60209383610b2b565b810103126100e2575180151581036100e25786610916565b3d915061095f565b6040513d5f823e3d90fd5b634e487b7160e01b5f52602160045260245ffd5b60405162461bcd60e51b815260206004820152601060248201526f4576656e74206e6f742061637469766560801b6044820152606490fd5b60405162461bcd60e51b815260206004820152601060248201526f151a58dad95d1cc81cdbdb19081bdd5d60821b6044820152606490fd5b60405162461bcd60e51b815260206004820152600f60248201526e115d995b9d081a185cc8195b991959608a1b6044820152606490fd5b60405162461bcd60e51b8152602060048201526014602482015273115d995b9d08191bd95cc81b9bdd08195e1a5cdd60621b6044820152606490fd5b346100e25760203660031901126100e2576004355f9081525f516020610c415f395f51905f5260205260409020546001600160a01b0316908115610ad757602082604051908152f35b62461bcd60e51b815260206004820152602960248201527f4552433732313a206f776e657220717565727920666f72206e6f6e657869737460448201526832b73a103a37b5b2b760b91b6064820152608490fd5b90601f8019910116810190811067ffffffffffffffff8211176107ad57604052565b90600182811c92168015610b7b575b6020831014610b6757565b634e487b7160e01b5f52602260045260245ffd5b91607f1691610b5c565b9060405191825f825492610b9884610b4d565b8084529360018116908115610c035750600114610bbf575b50610bbd92500383610b2b565b565b90505f9291925260205f20905f915b818310610be7575050906020610bbd928201015f610bb0565b6020919350806001915483858901015201910190918492610bce565b905060209250610bbd94915060ff191682840152151560051b8201015f610bb0565b5f1981146108125760010190565b919082018092116108125756fe34996e8e7836f23b0aaeabe6ac4ec3c4922c3ba17f363207b6779934a0c6005ea2646970667358221220f0cb68ea37846c0f761b27187e3ebdf936cd672ce6c9905fa1219eef3222012864736f6c634300081e0033","linkReferences":{}},"methodIdentifiers":{"balanceOf(address)":"70a08231","buyTicket(uint256)":"67dd74ca","getTicketEvent(uint256)":"a433cbbc","getTicketOwner()":"ed8f43d4","ownerOf(uint256)":"6352211e","tokenURI(uint256)":"c87b56dd"},"id":51}