{"abi":[{"type":"function","name":"distributeSponsorship","inputs":[{"name":"event_id","type":"uint256","internalType":"uint256"}],"outputs":[],"stateMutability":"nonpayable"},{"type":"function","name":"getAllSponsors","inputs":[{"name":"event_id","type":"uint256","internalType":"uint256"}],"outputs":[{"name":"","type":"tuple[]","internalType":"struct LibStorage.SponsorInfo[]","components":[{"name":"sponsor","type":"address","internalType":"address"},{"name":"amount","type":"uint256","internalType":"uint256"},{"name":"position","type":"uint256","internalType":"uint256"},{"name":"eventId","type":"uint256","internalType":"uint256"},{"name":"percentageContribution","type":"uint256","internalType":"uint256"}]}],"stateMutability":"view"},{"type":"function","name":"getSponsorInfo","inputs":[{"name":"sponsor","type":"address","internalType":"address"},{"name":"event_id","type":"uint256","internalType":"uint256"}],"outputs":[{"name":"","type":"tuple","internalType":"struct LibStorage.SponsorInfo","components":[{"name":"sponsor","type":"address","internalType":"address"},{"name":"amount","type":"uint256","internalType":"uint256"},{"name":"position","type":"uint256","internalType":"uint256"},{"name":"eventId","type":"uint256","internalType":"uint256"},{"name":"percentageContribution","type":"uint256","internalType":"uint256"}]}],"stateMutability":"view"},{"type":"function","name":"getSponsorOwner","inputs":[],"outputs":[{"name":"","type":"address","internalType":"address"}],"stateMutability":"nonpayable"},{"type":"function","name":"getTotalSponsorship","inputs":[{"name":"event_id","type":"uint256","internalType":"uint256"}],"outputs":[{"name":"","type":"uint256","internalType":"uint256"}],"stateMutability":"view"},{"type":"function","name":"sponsorEvent","inputs":[{"name":"amount","type":"uint256","internalType":"uint256"},{"name":"event_id","type":"uint256","internalType":"uint256"}],"outputs":[],"stateMutability":"nonpayable"},{"type":"event","name":"EventSponsored","inputs":[{"name":"sponsor","type":"address","indexed":true,"internalType":"address"},{"name":"amount","type":"uint256","indexed":false,"internalType":"uint256"},{"name":"eventId","type":"uint256","indexed":false,"internalType":"uint256"}],"anonymous":false},{"type":"event","name":"SponsorshipDistributed","inputs":[{"name":"distributor","type":"address","indexed":true,"internalType":"address"},{"name":"totalAmount","type":"uint256","indexed":false,"internalType":"uint256"},{"name":"eventId","type":"uint256","indexed":false,"internalType":"uint256"}],"anonymous":false},{"type":"event","name":"moduleOwner","inputs":[{"name":"owner","type":"address","indexed":true,"internalType":"address"},{"name":"moduleName","type":"string","indexed":false,"internalType":"string"}],"anonymous":false},{"type":"error","name":"EVENT_HAS_ENOUGH_BALANCE","inputs":[]},{"type":"error","name":"INVALID_AMOUNT_TO_DEPOSIT","inputs":[]},{"type":"error","name":"NO_INCOME_TO_DISTRIBUTE","inputs":[]}],"bytecode":{"object":"0x60808060405234601557610c09908161001a8239f35b5f80fdfe6080806040526004361015610012575f80fd5b5f3560e01c9081635fac32321461090857508063605de51d146108a65780639617db421461081b5780639f0ef4fa14610549578063b50a2192146101f05763c2b753ad1461005e575f80fd5b346101ec5760203660031901126101ec5760043561008b5f516020610b945f395f51905f52548210610a30565b805f525f516020610b745f395f51905f5260205260405f2054156101b0575f525f516020610b745f395f51905f5260205260405f2080549067ffffffffffffffff821161019c57604051916100e660208260051b0184610a0e565b8083526020830180925f5260205f205f915b83831061017e578486604051918291602083019060208452518091526040830191905f5b81811061012a575050500390f35b91935091602060a08261017060019488516080809160018060a01b0381511684526020810151602085015260408101516040850152606081015160608501520151910152565b01940191019184939261011c565b6005602060019261018e85610a73565b8152019201920191906100f8565b634e487b7160e01b5f52604160045260245ffd5b60405162461bcd60e51b815260206004820152601460248201527332bb32b73a103430b99037379039b837b739b7b960611b6044820152606490fd5b5f80fd5b346101ec5760403660031901126101ec576004356024356102205f516020610b945f395f51905f52548210610a30565b811561053a57805f525f516020610bb45f395f51905f5260205260405f2054815f527f34996e8e7836f23b0aaeabe6ac4ec3c4922c3ba17f363207b6779934a0c60065602052600b60405f200154111561052b577f34996e8e7836f23b0aaeabe6ac4ec3c4922c3ba17f363207b6779934a0c6005b546040516323b872dd60e01b81523360048201523060248201526044810184905290602090829060649082905f906001600160a01b03165af18015610520576104f3575b50805f527f34996e8e7836f23b0aaeabe6ac4ec3c4922c3ba17f363207b6779934a0c60065602052600b60405f2001546127108302838104612710036104df5781156104cb5704815f525f516020610b745f395f51905f5260205260405f20549060405191610347836109f2565b33835284602084015260408301528260608301526080820152815f527f34996e8e7836f23b0aaeabe6ac4ec3c4922c3ba17f363207b6779934a0c6006d60205260405f2060018060a01b0333165f526020526103a68160405f20610b1d565b815f525f516020610b745f395f51905f5260205260405f2080546801000000000000000081101561019c576103e091600182018155610af0565b9190916104b8576103f091610b1d565b805f527f34996e8e7836f23b0aaeabe6ac4ec3c4922c3ba17f363207b6779934a0c6006f60205260405f20610426838254610b66565b9055805f525f516020610bb45f395f51905f5260205260405f2061044b838254610b66565b9055805f527f34996e8e7836f23b0aaeabe6ac4ec3c4922c3ba17f363207b6779934a0c6006c60205260405f20610483838254610b66565b905560405191825260208201527f533f35ce8f7d4942b4a4ae69388ef89abfee66734419955de4ac3944600b085460403392a2005b634e487b7160e01b5f525f60045260245ffd5b634e487b7160e01b5f52601260045260245ffd5b634e487b7160e01b5f52601160045260245ffd5b6105149060203d602011610519575b61050c8183610a0e565b810190610acb565b6102d9565b503d610502565b6040513d5f823e3d90fd5b63429fcbcf60e11b5f5260045ffd5b630cc6dcff60e11b5f5260045ffd5b346101ec5760203660031901126101ec576004356105765f516020610b945f395f51905f52548210610a30565b805f525f516020610bb45f395f51905f5260205260646105bc60405f20547f34996e8e7836f23b0aaeabe6ac4ec3c4922c3ba17f363207b6779934a0c600745490610ab8565b7f34996e8e7836f23b0aaeabe6ac4ec3c4922c3ba17f363207b6779934a0c6005b547f34996e8e7836f23b0aaeabe6ac4ec3c4922c3ba17f363207b6779934a0c600755460405163a9059cbb60e01b81526001600160a01b03918216600482015293909204602484018190529116916020816044815f875af1908115610520575f916107fc575b50156107c65761066b90835f525f516020610bb45f395f51905f5260205260405f2054610ae3565b9182156107b757805f525f516020610b745f395f51905f5260205260405f20915f5b83548110156107b5576106a08185610af0565b50906127106106b3600484015488610ab8565b835460405163a9059cbb60e01b81526001600160a01b03909116600482015291900460248201819052906020816044815f895af1908115610520575f91610797575b5015610761577f32c5ec6b4eef49a4b3cee2e20308b154aa034c7534a21db5ce048c094b91d0ec6040600194875f525f516020610bb45f395f51905f52602052815f20610743858254610ae3565b9055858060a01b03905416928151908152876020820152a20161068d565b60405162461bcd60e51b815260206004820152600e60248201526d1c185e5b595b9d0819985a5b195960921b6044820152606490fd5b6107af915060203d81116105195761050c8183610a0e565b886106f5565b005b632b64c94b60e11b5f5260045ffd5b60405162461bcd60e51b815260206004820152600e60248201526d14185e5b595b9d0819985a5b195960921b6044820152606490fd5b610815915060203d6020116105195761050c8183610a0e565b84610643565b346101ec575f3660031901126101ec57602060018060a01b037f34996e8e7836f23b0aaeabe6ac4ec3c4922c3ba17f363207b6779934a0c600715416807f4740c09ad36a55c0680f919d85b7f26baa28b30ed46e6d3f0fbdac8a44a6c5936060604051858152600d868201526c1cdc1bdb9cdbdc881d985b1d5d609a1b6040820152a2604051908152f35b346101ec5760203660031901126101ec576004356108d35f516020610b945f395f51905f52548210610a30565b5f527f34996e8e7836f23b0aaeabe6ac4ec3c4922c3ba17f363207b6779934a0c6006f602052602060405f2054604051908152f35b346101ec5760403660031901126101ec57600435906001600160a01b03821682036101ec575f60806024359261093d816109f2565b828152826020820152826040820152826060820152015261096d5f516020610b945f395f51905f52548210610a30565b5f527f34996e8e7836f23b0aaeabe6ac4ec3c4922c3ba17f363207b6779934a0c6006d60205260405f209060018060a01b03165f5260205260a06109b360405f20610a73565b6109f060405180926080809160018060a01b0381511684526020810151602085015260408101516040850152606081015160608501520151910152565bf35b60a0810190811067ffffffffffffffff82111761019c57604052565b90601f8019910116810190811067ffffffffffffffff82111761019c57604052565b15610a3757565b60405162461bcd60e51b8152602060048201526014602482015273115d995b9d08191bd95cc81b9bdd08195e1a5cdd60621b6044820152606490fd5b90604051610a80816109f2565b82546001600160a01b031681526001830154602082015260028301546040820152600383015460608201526004909201546080830152565b818102929181159184041417156104df57565b908160209103126101ec575180151581036101ec5790565b919082039182116104df57565b8054821015610b09575f52600560205f20910201905f90565b634e487b7160e01b5f52603260045260245ffd5b815181546001600160a01b0319166001600160a01b0391909116178155602082015160018201556040820151600282015560608201516003820155608090910151600490910155565b919082018092116104df5756fe34996e8e7836f23b0aaeabe6ac4ec3c4922c3ba17f363207b6779934a0c6006e34996e8e7836f23b0aaeabe6ac4ec3c4922c3ba17f363207b6779934a0c6006334996e8e7836f23b0aaeabe6ac4ec3c4922c3ba17f363207b6779934a0c60070a26469706673582212209150a64a007d9698da7c4a0034fe5521ce8d310acc007f33dc95ab2d5117a10764736f6c634300081e0033","linkReferences":{}},"methodIdentifiers":{"distributeSponsorship(uint256)":"9f0ef4fa","getAllSponsors(uint256)":"c2b753ad","getSponsorInfo(address,uint256)":"5fac3232","getSponsorOwner()":"9617db42","getTotalSponsorship(uint256)":"605de51d","sponsorEvent(uint256,uint256)":"b50a2192"},"id":50}